{
  "contractName": "SmartContract",
  "abi": [
    {
      "constant": true,
      "inputs": [
        {
          "name": "_cid",
          "type": "uint256"
        }
      ],
      "name": "getBid",
      "outputs": [
        {
          "name": "",
          "type": "uint256"
        },
        {
          "name": "",
          "type": "bytes32"
        },
        {
          "name": "",
          "type": "uint256"
        },
        {
          "name": "",
          "type": "uint256"
        }
      ],
      "payable": false,
      "stateMutability": "view",
      "type": "function"
    },
    {
      "constant": true,
      "inputs": [
        {
          "name": "",
          "type": "uint256"
        }
      ],
      "name": "contracts",
      "outputs": [
        {
          "name": "contractId",
          "type": "uint256"
        },
        {
          "name": "asset",
          "type": "bytes32"
        },
        {
          "name": "quantity",
          "type": "uint256"
        },
        {
          "name": "targetPrice",
          "type": "uint256"
        },
        {
          "name": "targetTime",
          "type": "uint256"
        },
        {
          "name": "extra",
          "type": "bytes32"
        }
      ],
      "payable": false,
      "stateMutability": "view",
      "type": "function"
    },
    {
      "constant": true,
      "inputs": [],
      "name": "getClosedContracts",
      "outputs": [
        {
          "name": "",
          "type": "uint256[]"
        },
        {
          "name": "",
          "type": "bytes32[]"
        },
        {
          "name": "",
          "type": "uint256[]"
        },
        {
          "name": "",
          "type": "uint256[]"
        },
        {
          "name": "",
          "type": "uint256[]"
        },
        {
          "name": "",
          "type": "bytes32[]"
        }
      ],
      "payable": false,
      "stateMutability": "view",
      "type": "function"
    },
    {
      "constant": false,
      "inputs": [
        {
          "name": "_cId",
          "type": "uint256"
        },
        {
          "name": "_asset",
          "type": "bytes32"
        },
        {
          "name": "_quantity",
          "type": "uint256"
        },
        {
          "name": "_targetPrice",
          "type": "uint256"
        },
        {
          "name": "_targetTime",
          "type": "uint256"
        },
        {
          "name": "_extra",
          "type": "bytes32"
        }
      ],
      "name": "addContract",
      "outputs": [
        {
          "name": "success",
          "type": "bool"
        }
      ],
      "payable": false,
      "stateMutability": "nonpayable",
      "type": "function"
    },
    {
      "constant": false,
      "inputs": [
        {
          "name": "_cid",
          "type": "uint256"
        },
        {
          "name": "_supplier",
          "type": "bytes32"
        },
        {
          "name": "_price",
          "type": "uint256"
        },
        {
          "name": "_bidTime",
          "type": "uint256"
        }
      ],
      "name": "bid",
      "outputs": [
        {
          "name": "success",
          "type": "bool"
        }
      ],
      "payable": false,
      "stateMutability": "nonpayable",
      "type": "function"
    },
    {
      "inputs": [],
      "payable": false,
      "stateMutability": "nonpayable",
      "type": "constructor"
    }
  ],
  "bytecode": "0x60606040526000600255341561001457600080fd5b6000600381905550610a818061002b6000396000f30060606040526004361061006d576000357c0100000000000000000000000000000000000000000000000000000000900463ffffffff1680633c889e6f14610072578063474da79a146100c6578063a187af9714610130578063b74ba78b14610302578063da74367314610372575b600080fd5b341561007d57600080fd5b61009360048080359060200190919050506103cc565b60405180858152602001846000191660001916815260200183815260200182815260200194505050505060405180910390f35b34156100d157600080fd5b6100e76004808035906020019091905050610423565b6040518087815260200186600019166000191681526020018581526020018481526020018381526020018260001916600019168152602001965050505050505060405180910390f35b341561013b57600080fd5b61014361046e565b6040518080602001806020018060200180602001806020018060200187810387528d818151815260200191508051906020019060200280838360005b8381101561019a57808201518184015260208101905061017f565b5050505090500187810386528c818151815260200191508051906020019060200280838360005b838110156101dc5780820151818401526020810190506101c1565b5050505090500187810385528b818151815260200191508051906020019060200280838360005b8381101561021e578082015181840152602081019050610203565b5050505090500187810384528a818151815260200191508051906020019060200280838360005b83811015610260578082015181840152602081019050610245565b50505050905001878103835289818151815260200191508051906020019060200280838360005b838110156102a2578082015181840152602081019050610287565b50505050905001878103825288818151815260200191508051906020019060200280838360005b838110156102e45780820151818401526020810190506102c9565b505050509050019c5050505050505050505050505060405180910390f35b341561030d57600080fd5b6103586004808035906020019091908035600019169060200190919080359060200190919080359060200190919080359060200190919080356000191690602001909190505061073b565b604051808215151515815260200191505060405180910390f35b341561037d57600080fd5b6103b2600480803590602001909190803560001916906020019091908035906020019091908035906020019091905050610819565b604051808215151515815260200191505060405180910390f35b6000806000806000806000806000600160008b815260200190815260200160002094508460000154935084600101549250846003015491508460040154905083838383985098509850985050505050509193509193565b60008181548110151561043257fe5b90600052602060002090600602016000915090508060000154908060010154908060020154908060030154908060040154908060050154905086565b610476610926565b61047e61093a565b610486610926565b61048e610926565b610496610926565b61049e61093a565b60006104a8610926565b6104b061093a565b6104b8610926565b6104c0610926565b6104c8610926565b6104d061093a565b60006104da61094e565b6000805490509850886040518059106104f05750595b90808252806020026020018201604052509750886040518059106105115750595b90808252806020026020018201604052509650886040518059106105325750595b90808252806020026020018201604052509550886040518059106105535750595b90808252806020026020018201604052509450886040518059106105745750595b90808252806020026020018201604052509350886040518059106105955750595b90808252806020026020018201604052509250600091505b600080549050821015610718576000828154811015156105c957fe5b906000526020600020906006020160c0604051908101604052908160008201548152602001600182015460001916600019168152602001600282015481526020016003820154815260200160048201548152602001600582015460001916600019168152505090508060000151888381518110151561064457fe5b90602001906020020181815250508060200151878381518110151561066557fe5b9060200190602002019060001916908160001916815250508060400151868381518110151561069057fe5b9060200190602002018181525050806060015185838151811015156106b157fe5b9060200190602002018181525050806080015184838151811015156106d257fe5b90602001906020020181815250508060a0015183838151811015156106f357fe5b90602001906020020190600019169081600019168152505081806001019250506105ad565b8787878787879e509e509e509e509e509e50505050505050505050909192939495565b600061074561094e565b878160000181815250508681602001906000191690816000191681525050858160400181815250508481606001818152505083816080018181525050828160a001906000191690816000191681525050600080548060010182816107a9919061098b565b91600052602060002090600602016000839091909150600082015181600001556020820151816001019060001916905560408201518160020155606082015181600301556080820151816004015560a0820151816005019060001916905550505060019150509695505050505050565b60006108236109bd565b858160000181815250508481602001906000191690816000191681525050838160600181815250508281608001818152505033816040019073ffffffffffffffffffffffffffffffffffffffff16908173ffffffffffffffffffffffffffffffffffffffff16815250508060016000888152602001908152602001600020600082015181600001556020820151816001019060001916905560408201518160020160006101000a81548173ffffffffffffffffffffffffffffffffffffffff021916908373ffffffffffffffffffffffffffffffffffffffff16021790555060608201518160030155608082015181600401559050506001915050949350505050565b602060405190810160405280600081525090565b602060405190810160405280600081525090565b60c0604051908101604052806000815260200160008019168152602001600081526020016000815260200160008152602001600080191681525090565b8154818355818115116109b8576006028160060283600052602060002091820191016109b79190610a06565b5b505050565b60a0604051908101604052806000815260200160008019168152602001600073ffffffffffffffffffffffffffffffffffffffff16815260200160008152602001600081525090565b610a5291905b80821115610a4e576000808201600090556001820160009055600282016000905560038201600090556004820160009055600582016000905550600601610a0c565b5090565b905600a165627a7a7230582054927732ba6dbe51a46737a52e4654aad284880415b0a0eb6406d904f0b6af620029",
  "source": "pragma solidity ^0.4.8;\ncontract SmartContract {\n    Contract[] public contracts; //array of open contracts\n\n    //Bid[] public bids;\n    mapping(uint => Bid) bidMap;\n    uint bidTableContractId = 0;\n    uint count; //number of contracts\n    /*struct Date {\n        uint day;\n        uint month;\n        uint year;\n    }*/\n    struct Contract { //create Contract datatype\n        uint contractId;\n        bytes32 asset;\n        uint quantity;\n        uint targetPrice;\n        uint targetTime;\n        bytes32 extra;\n    }\n    struct Bid {\n        uint contractId;\n        bytes32 supplier;\n        address owner;\n        uint price;\n        uint bidTime;\n    }\n\n    function SmartContract() {\n        count = 0;\n    }\n\n    function addContract(uint _cId, bytes32 _asset, uint _quantity, uint _targetPrice, uint _targetTime, bytes32 _extra) returns (bool success) {\n        Contract memory newContract; //creates new struct and memory\n        /*Date memory _date;*/\n        newContract.contractId = _cId;\n        newContract.asset = _asset;\n        newContract.quantity = _quantity;\n        newContract.targetPrice = _targetPrice;\n        newContract.targetTime = _targetTime;\n        newContract.extra = _extra;\n        contracts.push(newContract);//add elem to array\n        return true;\n    }\n\n    function bid(uint _cid, bytes32 _supplier, uint _price, uint _bidTime) returns (bool success) {\n        Bid memory newBid;\n        newBid.contractId = _cid;\n        newBid.supplier = _supplier;\n        newBid.price = _price;\n        newBid.bidTime = _bidTime;\n        newBid.owner = msg.sender;\n        bidMap[_cid] = newBid;\n        return true;\n    }\n\n    function getClosedContracts() constant returns (uint[], bytes32[], uint[], uint[], uint[], bytes32[]) {\n        uint length = contracts.length;\n        uint[] memory contractId = new uint[](length);\n        bytes32[] memory asset = new bytes32[](length);\n        uint[] memory qty = new uint[](length);\n        uint[] memory targetPrice = new uint[](length);\n        uint[] memory targetTime = new uint[](length);\n        bytes32[] memory extraField1 = new bytes32[](length);\n\n        for (uint i = 0; i < contracts.length; i++) {\n            Contract memory currentContract;\n            currentContract = contracts[i];\n\n              contractId[i] = currentContract.contractId;\n              asset[i] = currentContract.asset;\n              qty[i] = currentContract.quantity;\n              targetPrice[i] = currentContract.targetPrice;\n              targetTime[i] = currentContract.targetTime;\n              extraField1[i] = currentContract.extra;\n        }\n        return (contractId, asset, qty, targetPrice, targetTime, extraField1);\n    }\n\n    function getBid(uint _cid) constant returns (uint, bytes32, uint, uint){\n        var bid = bidMap[_cid];\n        uint contractId = bid.contractId;\n        bytes32 supplier = bid.supplier;\n        uint price = bid.price;\n        uint timeToComplete = bid.bidTime;\n        return (contractId, supplier, price, timeToComplete);\n    }\n}\n",
  "sourcePath": "/home/peter/Documents/energy-p2p/src/main/java/smartcontract/contracts/SmartContract.sol",
  "compiler": {
    "name": "solc",
    "version": "0.4.18+commit.9cf6e910.Emscripten.clang"
  },
  "schemaVersion": "1.0.1",
  "updatedAt": "2017-12-14T12:05:04.365Z"
}