{
  "contractName": "SmartContract",
  "abi": [
    {
      "constant": true,
      "inputs": [
        {
          "name": "",
          "type": "uint256"
        }
      ],
      "name": "contracts",
      "outputs": [
        {
          "name": "contractId",
          "type": "uint256"
        },
        {
          "name": "quantity",
          "type": "uint256"
        },
        {
          "name": "targetPrice",
          "type": "uint256"
        },
        {
          "name": "targetTime",
          "type": "uint256"
        }
      ],
      "payable": false,
      "stateMutability": "view",
      "type": "function"
    },
    {
      "inputs": [],
      "payable": false,
      "stateMutability": "nonpayable",
      "type": "constructor"
    },
    {
      "anonymous": false,
      "inputs": [
        {
          "indexed": true,
          "name": "age",
          "type": "uint256"
        },
        {
          "indexed": true,
          "name": "height",
          "type": "uint256"
        }
      ],
      "name": "BidAccepted",
      "type": "event"
    },
    {
      "constant": false,
      "inputs": [
        {
          "name": "_cId",
          "type": "uint256"
        },
        {
          "name": "_quantity",
          "type": "uint256"
        },
        {
          "name": "_targetPrice",
          "type": "uint256"
        },
        {
          "name": "_targetTime",
          "type": "uint256"
        }
      ],
      "name": "addContract",
      "outputs": [
        {
          "name": "success",
          "type": "bool"
        }
      ],
      "payable": false,
      "stateMutability": "nonpayable",
      "type": "function"
    },
    {
      "constant": false,
      "inputs": [
        {
          "name": "_cid",
          "type": "uint256"
        },
        {
          "name": "_supplier",
          "type": "bytes32"
        },
        {
          "name": "_price",
          "type": "uint256"
        },
        {
          "name": "_bidTime",
          "type": "uint256"
        }
      ],
      "name": "bid",
      "outputs": [
        {
          "name": "success",
          "type": "bool"
        }
      ],
      "payable": false,
      "stateMutability": "nonpayable",
      "type": "function"
    },
    {
      "constant": true,
      "inputs": [],
      "name": "getClosedContracts",
      "outputs": [
        {
          "name": "",
          "type": "uint256[]"
        },
        {
          "name": "",
          "type": "uint256[]"
        },
        {
          "name": "",
          "type": "uint256[]"
        },
        {
          "name": "",
          "type": "uint256[]"
        }
      ],
      "payable": false,
      "stateMutability": "view",
      "type": "function"
    },
    {
      "constant": true,
      "inputs": [
        {
          "name": "_cid",
          "type": "uint256"
        }
      ],
      "name": "getBid",
      "outputs": [
        {
          "name": "",
          "type": "uint256"
        },
        {
          "name": "",
          "type": "bytes32"
        },
        {
          "name": "",
          "type": "uint256"
        },
        {
          "name": "",
          "type": "uint256"
        }
      ],
      "payable": false,
      "stateMutability": "view",
      "type": "function"
    }
  ],
  "bytecode": "0x60606040526000600255341561001457600080fd5b60006003819055506108458061002b6000396000f30060606040526004361061006d576000357c0100000000000000000000000000000000000000000000000000000000900463ffffffff1680633c889e6f14610072578063474da79a146100c6578063911ff48814610112578063a187af9714610168578063da743673146102aa575b600080fd5b341561007d57600080fd5b6100936004808035906020019091905050610304565b60405180858152602001846000191660001916815260200183815260200182815260200194505050505060405180910390f35b34156100d157600080fd5b6100e7600480803590602001909190505061035b565b6040518085815260200184815260200183815260200182815260200194505050505060405180910390f35b341561011d57600080fd5b61014e600480803590602001909190803590602001909190803590602001909190803590602001909190505061039a565b604051808215151515815260200191505060405180910390f35b341561017357600080fd5b61017b61042e565b6040518080602001806020018060200180602001858103855289818151815260200191508051906020019060200280838360005b838110156101ca5780820151818401526020810190506101af565b50505050905001858103845288818151815260200191508051906020019060200280838360005b8381101561020c5780820151818401526020810190506101f1565b50505050905001858103835287818151815260200191508051906020019060200280838360005b8381101561024e578082015181840152602081019050610233565b50505050905001858103825286818151815260200191508051906020019060200280838360005b83811015610290578082015181840152602081019050610275565b505050509050019850505050505050505060405180910390f35b34156102b557600080fd5b6102ea600480803590602001909190803560001916906020019091908035906020019091908035906020019091905050610615565b604051808215151515815260200191505060405180910390f35b6000806000806000806000806000600160008b815260200190815260200160002094508460000154935084600101549250846003015491508460040154905083838383985098509850985050505050509193509193565b60008181548110151561036a57fe5b90600052602060002090600402016000915090508060000154908060010154908060020154908060030154905084565b60006103a4610722565b85816000018181525050848160200181815250508381604001818152505082816060018181525050600080548060010182816103e0919061074b565b91600052602060002090600402016000839091909150600082015181600001556020820151816001015560408201518160020155606082015181600301555050506001915050949350505050565b61043661077d565b61043e61077d565b61044661077d565b61044e61077d565b600061045861077d565b61046061077d565b61046861077d565b61047061077d565b600061047a610722565b6000805490509650866040518059106104905750595b90808252806020026020018201604052509550866040518059106104b15750595b90808252806020026020018201604052509450866040518059106104d25750595b90808252806020026020018201604052509350866040518059106104f35750595b90808252806020026020018201604052509250600091505b6000805490508210156105fc5760008281548110151561052757fe5b90600052602060002090600402016080604051908101604052908160008201548152602001600182015481526020016002820154815260200160038201548152505090508060000151868381518110151561057e57fe5b90602001906020020181815250508060200151858381518110151561059f57fe5b9060200190602002018181525050806040015184838151811015156105c057fe5b9060200190602002018181525050806060015183838151811015156105e157fe5b9060200190602002018181525050818060010192505061050b565b858585859a509a509a509a505050505050505090919293565b600061061f610791565b858160000181815250508481602001906000191690816000191681525050838160600181815250508281608001818152505033816040019073ffffffffffffffffffffffffffffffffffffffff16908173ffffffffffffffffffffffffffffffffffffffff16815250508060016000888152602001908152602001600020600082015181600001556020820151816001019060001916905560408201518160020160006101000a81548173ffffffffffffffffffffffffffffffffffffffff021916908373ffffffffffffffffffffffffffffffffffffffff16021790555060608201518160030155608082015181600401559050506001915050949350505050565b608060405190810160405280600081526020016000815260200160008152602001600081525090565b8154818355818115116107785760040281600402836000526020600020918201910161077791906107da565b5b505050565b602060405190810160405280600081525090565b60a0604051908101604052806000815260200160008019168152602001600073ffffffffffffffffffffffffffffffffffffffff16815260200160008152602001600081525090565b61081691905b8082111561081257600080820160009055600182016000905560028201600090556003820160009055506004016107e0565b5090565b905600a165627a7a72305820f16c76e4d1a244a8e6ba6e203e790ef8627913aded06401af23612b02b1e5d500029",
  "source": "pragma solidity ^0.4.20;\ncontract SmartContract {\n    Contract[] public contracts;\n    event BidAccepted(uint indexed age, uint indexed height);\n\n//Bid[] public bids;\n    mapping(uint => Bid) bidMap;\n    uint bidTableContractId = 0;\n    uint noOfContracts;\n    /*struct Date {\n        uint day;\n        uint month;\n        uint year;\n    }*/\n    struct Contract {\n        uint contractId;\n        uint quantity;\n        uint targetPrice;\n        uint targetTime;\n    }\n    struct Bid {\n        uint contractId;\n        bytes32 supplier;\n        address owner;\n        uint price;\n        uint bidTime;\n    }\n\n    function SmartContract() {\n        noOfContracts = 0;\n    }\n\n    function addContract(uint _cId , uint _quantity, uint _targetPrice, uint _targetTime) returns (bool success) {\n        Contract memory newContract; //creates new struct and memory\n        /*Date memory _date;*/\n        newContract.contractId = _cId;\n        newContract.quantity = _quantity;\n        newContract.targetPrice = _targetPrice;\n        newContract.targetTime = _targetTime;\n        contracts.push(newContract);//add elem to array\n        return true;\n    }\n\n    function bid(uint _cid, bytes32 _supplier, uint _price, uint _bidTime) returns (bool success) {\n        Bid memory newBid;\n        newBid.contractId = _cid;\n        newBid.supplier = _supplier;\n        newBid.price = _price;\n        newBid.bidTime = _bidTime;\n        newBid.owner = msg.sender;\n        bidMap[_cid] = newBid;\n        return true;\n    }\n\n    function getClosedContracts() constant returns (uint[], uint[], uint[], uint[]) {\n        uint length = contracts.length;\n        uint[] memory contractId = new uint[](length);\n        uint[] memory qty = new uint[](length);\n        uint[] memory targetPrice = new uint[](length);\n        uint[] memory targetTime = new uint[](length);\n\n        for (uint i = 0; i < contracts.length; i++) {\n            Contract memory currentContract;\n            currentContract = contracts[i];\n\n              contractId[i] = currentContract.contractId;\n              qty[i] = currentContract.quantity;\n              targetPrice[i] = currentContract.targetPrice;\n              targetTime[i] = currentContract.targetTime;\n        }\n        return (contractId, qty, targetPrice, targetTime);\n    }\n\n    function getBid(uint _cid) constant returns (uint, bytes32, uint, uint){\n        var bidMade = bidMap[_cid];\n        uint contractId = bidMade.contractId;\n        bytes32 supplier = bidMade.supplier;\n        uint price = bidMade.price;\n        uint timeToComplete = bidMade.bidTime;\n        return (contractId, supplier, price, timeToComplete);\n    }\n}\n",
  "sourcePath": "/home/peter/Documents/energy-p2p/src/main/java/smartcontract/contracts/SmartContract.sol",
  "compiler": {
    "name": "solc",
    "version": "0.4.21+commit.dfe3193c.Emscripten.clang"
  },
  "schemaVersion": "2.0.0",
  "updatedAt": "2018-04-05T12:07:01.551Z"
}